{
  "_format": "hh-sol-artifact-1",
  "contractName": "Todo",
  "sourceName": "contracts/Todo.sol",
  "abi": [
    {
      "inputs": [],
      "stateMutability": "nonpayable",
      "type": "constructor"
    },
    {
      "anonymous": false,
      "inputs": [
        {
          "indexed": true,
          "internalType": "uint256",
          "name": "taskId",
          "type": "uint256"
        },
        {
          "indexed": true,
          "internalType": "address",
          "name": "creator",
          "type": "address"
        },
        {
          "indexed": true,
          "internalType": "string",
          "name": "message",
          "type": "string"
        }
      ],
      "name": "TaskAdded",
      "type": "event"
    },
    {
      "anonymous": false,
      "inputs": [
        {
          "indexed": true,
          "internalType": "uint256",
          "name": "taskId",
          "type": "uint256"
        },
        {
          "indexed": true,
          "internalType": "address",
          "name": "creator",
          "type": "address"
        },
        {
          "indexed": true,
          "internalType": "bool",
          "name": "status",
          "type": "bool"
        }
      ],
      "name": "TaskToggled",
      "type": "event"
    },
    {
      "inputs": [
        {
          "internalType": "uint256",
          "name": "_taskId",
          "type": "uint256"
        }
      ],
      "name": "completeTask",
      "outputs": [],
      "stateMutability": "nonpayable",
      "type": "function"
    },
    {
      "inputs": [
        {
          "internalType": "string",
          "name": "_content",
          "type": "string"
        }
      ],
      "name": "createTask",
      "outputs": [],
      "stateMutability": "nonpayable",
      "type": "function"
    },
    {
      "inputs": [],
      "name": "getAllTasks",
      "outputs": [
        {
          "components": [
            {
              "internalType": "uint256",
              "name": "id",
              "type": "uint256"
            },
            {
              "internalType": "address",
              "name": "creator",
              "type": "address"
            },
            {
              "internalType": "string",
              "name": "message",
              "type": "string"
            },
            {
              "internalType": "bool",
              "name": "completed",
              "type": "bool"
            },
            {
              "internalType": "uint256",
              "name": "createdAt",
              "type": "uint256"
            },
            {
              "internalType": "uint256",
              "name": "completedAt",
              "type": "uint256"
            }
          ],
          "internalType": "struct Todo.Task[]",
          "name": "",
          "type": "tuple[]"
        }
      ],
      "stateMutability": "view",
      "type": "function"
    },
    {
      "inputs": [
        {
          "internalType": "uint256",
          "name": "_taskId",
          "type": "uint256"
        }
      ],
      "name": "getTask",
      "outputs": [
        {
          "components": [
            {
              "internalType": "uint256",
              "name": "id",
              "type": "uint256"
            },
            {
              "internalType": "address",
              "name": "creator",
              "type": "address"
            },
            {
              "internalType": "string",
              "name": "message",
              "type": "string"
            },
            {
              "internalType": "bool",
              "name": "completed",
              "type": "bool"
            },
            {
              "internalType": "uint256",
              "name": "createdAt",
              "type": "uint256"
            },
            {
              "internalType": "uint256",
              "name": "completedAt",
              "type": "uint256"
            }
          ],
          "internalType": "struct Todo.Task",
          "name": "",
          "type": "tuple"
        }
      ],
      "stateMutability": "view",
      "type": "function"
    },
    {
      "inputs": [
        {
          "internalType": "uint256",
          "name": "_taskId",
          "type": "uint256"
        }
      ],
      "name": "getTaskName",
      "outputs": [
        {
          "internalType": "string",
          "name": "",
          "type": "string"
        }
      ],
      "stateMutability": "view",
      "type": "function"
    },
    {
      "inputs": [
        {
          "internalType": "uint256",
          "name": "_taskId",
          "type": "uint256"
        }
      ],
      "name": "getTaskOwner",
      "outputs": [
        {
          "internalType": "address",
          "name": "",
          "type": "address"
        }
      ],
      "stateMutability": "view",
      "type": "function"
    },
    {
      "inputs": [
        {
          "internalType": "uint256",
          "name": "_taskId",
          "type": "uint256"
        }
      ],
      "name": "getTaskStatus",
      "outputs": [
        {
          "internalType": "bool",
          "name": "",
          "type": "bool"
        }
      ],
      "stateMutability": "view",
      "type": "function"
    },
    {
      "inputs": [
        {
          "internalType": "address",
          "name": "_user",
          "type": "address"
        }
      ],
      "name": "getUserTasks",
      "outputs": [
        {
          "components": [
            {
              "internalType": "uint256",
              "name": "id",
              "type": "uint256"
            },
            {
              "internalType": "address",
              "name": "creator",
              "type": "address"
            },
            {
              "internalType": "string",
              "name": "message",
              "type": "string"
            },
            {
              "internalType": "bool",
              "name": "completed",
              "type": "bool"
            },
            {
              "internalType": "uint256",
              "name": "createdAt",
              "type": "uint256"
            },
            {
              "internalType": "uint256",
              "name": "completedAt",
              "type": "uint256"
            }
          ],
          "internalType": "struct Todo.Task[]",
          "name": "",
          "type": "tuple[]"
        }
      ],
      "stateMutability": "view",
      "type": "function"
    },
    {
      "inputs": [
        {
          "internalType": "uint256",
          "name": "_taskId",
          "type": "uint256"
        },
        {
          "internalType": "bool",
          "name": "_status",
          "type": "bool"
        }
      ],
      "name": "setTaskStatus",
      "outputs": [],
      "stateMutability": "nonpayable",
      "type": "function"
    },
    {
      "inputs": [
        {
          "internalType": "uint256",
          "name": "_taskId",
          "type": "uint256"
        }
      ],
      "name": "toggleTask",
      "outputs": [],
      "stateMutability": "nonpayable",
      "type": "function"
    }
  ],
  "bytecode": "0x608060405234801561001057600080fd5b5060008055610f19806100246000396000f3fe608060405234801561001057600080fd5b506004361061009e5760003560e01c806356755b131161006657806356755b1314610142578063613137a414610162578063779900b41461017557806395d576601461018a578063e1e295581461019d57600080fd5b8063111002aa146100a35780631d65e77e146100b857806323d16818146100e15780635290900b1461010c57806353cd7b8e1461012f575b600080fd5b6100b66100b1366004610b1c565b6101b0565b005b6100cb6100c6366004610b8e565b610347565b6040516100d89190610c4a565b60405180910390f35b6100f46100ef366004610b8e565b610470565b6040516001600160a01b0390911681526020016100d8565b61011f61011a366004610b8e565b6104a8565b60405190151581526020016100d8565b6100b661013d366004610c64565b6104da565b610155610150366004610b8e565b610572565b6040516100d89190610c99565b6100b6610170366004610b8e565b610628565b61017d6106f1565b6040516100d89190610cac565b61017d610198366004610d0e565b61082b565b6100b66101ab366004610b8e565b610a45565b60016040518060c001604052806000548152602001336001600160a01b0316815260200184848080601f0160208091040260200160405190810160405280939291908181526020018383808284376000920182905250938552505050602080830182905242604080850191909152606090930182905284546001808201875595835291819020845160069093020191825583015193810180546001600160a01b0319166001600160a01b0390951694909417909355810151909190600282019061027a9082610dd6565b5060608201516003828101805460ff1916921515929092179091556080830151600483015560a09092015160059091015533600081815260026020908152604080832083548154600181018355918552838520909101558254835293905291822080546001600160a01b0319169091179055805490806102f983610e96565b9190505550818160405161030e929190610ebd565b6040519081900381206000805491923392917f93a8e75471bd311ce5f95db404c257e8b775ab9f5436c5b6997e81651d56a01491a45050565b61034f610adb565b6001828154811061036257610362610ecd565b90600052602060002090600602016040518060c0016040529081600082015481526020016001820160009054906101000a90046001600160a01b03166001600160a01b03166001600160a01b031681526020016002820180546103c490610d4d565b80601f01602080910402602001604051908101604052809291908181526020018280546103f090610d4d565b801561043d5780601f106104125761010080835404028352916020019161043d565b820191906000526020600020905b81548152906001019060200180831161042057829003601f168201915b5050509183525050600382015460ff16151560208201526004820154604082015260059091015460609091015292915050565b60006001828154811061048557610485610ecd565b60009182526020909120600160069092020101546001600160a01b031692915050565b6000600182815481106104bd576104bd610ecd565b600091825260209091206003600690920201015460ff1692915050565b80600183815481106104ee576104ee610ecd565b906000526020600020906006020160030160006101000a81548160ff021916908315150217905550426001838154811061052a5761052a610ecd565b6000918252602082206005600690920201019190915560405182151591339185917fbc7e5fe208a142dfe2e39f95207205fae6ebe448457cc71f35e83a746ddf586b91a45050565b60606001828154811061058757610587610ecd565b906000526020600020906006020160020180546105a390610d4d565b80601f01602080910402602001604051908101604052809291908181526020018280546105cf90610d4d565b801561061c5780601f106105f15761010080835404028352916020019161061c565b820191906000526020600020905b8154815290600101906020018083116105ff57829003601f168201915b50505050509050919050565b6001818154811061063b5761063b610ecd565b906000526020600020906006020160030160009054906101000a900460ff16156001828154811061066e5761066e610ecd565b906000526020600020906006020160030160006101000a81548160ff021916908315150217905550600181815481106106a9576106a9610ecd565b6000918252602082206003600690920201015460405160ff909116151591339184917fbc7e5fe208a142dfe2e39f95207205fae6ebe448457cc71f35e83a746ddf586b91a450565b60606001805480602002602001604051908101604052809291908181526020016000905b828210156108225760008481526020908190206040805160c081018252600686029092018054835260018101546001600160a01b0316938301939093526002830180549293929184019161076890610d4d565b80601f016020809104026020016040519081016040528092919081815260200182805461079490610d4d565b80156107e15780601f106107b6576101008083540402835291602001916107e1565b820191906000526020600020905b8154815290600101906020018083116107c457829003601f168201915b5050509183525050600382015460ff161515602080830191909152600483015460408301526005909201546060909101529082526001929092019101610715565b50505050905090565b6001600160a01b0381166000908152600260205260408120546060918167ffffffffffffffff81111561086057610860610d37565b60405190808252806020026020018201604052801561089957816020015b610886610adb565b81526020019060019003908161087e5790505b5090506000805b83811015610a3b576001600160a01b03861660009081526002602052604081208054839081106108d2576108d2610ecd565b90600052602060002001549050600181815481106108f2576108f2610ecd565b90600052602060002090600602016040518060c0016040529081600082015481526020016001820160009054906101000a90046001600160a01b03166001600160a01b03166001600160a01b0316815260200160028201805461095490610d4d565b80601f016020809104026020016040519081016040528092919081815260200182805461098090610d4d565b80156109cd5780601f106109a2576101008083540402835291602001916109cd565b820191906000526020600020905b8154815290600101906020018083116109b057829003601f168201915b5050509183525050600382015460ff1615156020820152600482015460408201526005909101546060909101528451859085908110610a0e57610a0e610ecd565b60200260200101819052508280610a2490610e96565b935050508080610a3390610e96565b9150506108a0565b5090949350505050565b6001808281548110610a5957610a59610ecd565b906000526020600020906006020160030160006101000a81548160ff0219169083151502179055504260018281548110610a9557610a95610ecd565b60009182526020822060056006909202010191909155604051600191339184917fbc7e5fe208a142dfe2e39f95207205fae6ebe448457cc71f35e83a746ddf586b91a450565b6040518060c001604052806000815260200160006001600160a01b031681526020016060815260200160001515815260200160008152602001600081525090565b60008060208385031215610b2f57600080fd5b823567ffffffffffffffff80821115610b4757600080fd5b818501915085601f830112610b5b57600080fd5b813581811115610b6a57600080fd5b866020828501011115610b7c57600080fd5b60209290920196919550909350505050565b600060208284031215610ba057600080fd5b5035919050565b6000815180845260005b81811015610bcd57602081850181015186830182015201610bb1565b506000602082860101526020601f19601f83011685010191505092915050565b8051825260018060a01b0360208201511660208301526000604082015160c06040850152610c1e60c0850182610ba7565b90506060830151151560608501526080830151608085015260a083015160a08501528091505092915050565b602081526000610c5d6020830184610bed565b9392505050565b60008060408385031215610c7757600080fd5b8235915060208301358015158114610c8e57600080fd5b809150509250929050565b602081526000610c5d6020830184610ba7565b6000602080830181845280855180835260408601915060408160051b870101925083870160005b82811015610d0157603f19888603018452610cef858351610bed565b94509285019290850190600101610cd3565b5092979650505050505050565b600060208284031215610d2057600080fd5b81356001600160a01b0381168114610c5d57600080fd5b634e487b7160e01b600052604160045260246000fd5b600181811c90821680610d6157607f821691505b602082108103610d8157634e487b7160e01b600052602260045260246000fd5b50919050565b601f821115610dd157600081815260208120601f850160051c81016020861015610dae5750805b601f850160051c820191505b81811015610dcd57828155600101610dba565b5050505b505050565b815167ffffffffffffffff811115610df057610df0610d37565b610e0481610dfe8454610d4d565b84610d87565b602080601f831160018114610e395760008415610e215750858301515b600019600386901b1c1916600185901b178555610dcd565b600085815260208120601f198616915b82811015610e6857888601518255948401946001909101908401610e49565b5085821015610e865787850151600019600388901b60f8161c191681555b5050505050600190811b01905550565b600060018201610eb657634e487b7160e01b600052601160045260246000fd5b5060010190565b8183823760009101908152919050565b634e487b7160e01b600052603260045260246000fdfea26469706673582212207710a9bd914dcb9bdf440382715bb7f8faf89d266f9836375b5332fa22769a8664736f6c63430008110033",
  "linkReferences": {},
  "deployedLinkReferences": {}
}